{
	"lotterySmartContract.sol": {
		"Lottey": {
			"abi": [
				{
					"inputs": [],
					"stateMutability": "nonpayable",
					"type": "constructor"
				},
				{
					"inputs": [],
					"name": "getBalance",
					"outputs": [
						{
							"internalType": "uint256",
							"name": "",
							"type": "uint256"
						}
					],
					"stateMutability": "view",
					"type": "function"
				},
				{
					"inputs": [],
					"name": "getRandom",
					"outputs": [
						{
							"internalType": "uint256",
							"name": "",
							"type": "uint256"
						}
					],
					"stateMutability": "view",
					"type": "function"
				},
				{
					"inputs": [],
					"name": "manager",
					"outputs": [
						{
							"internalType": "address",
							"name": "",
							"type": "address"
						}
					],
					"stateMutability": "view",
					"type": "function"
				},
				{
					"inputs": [
						{
							"internalType": "uint256",
							"name": "",
							"type": "uint256"
						}
					],
					"name": "participants",
					"outputs": [
						{
							"internalType": "address payable",
							"name": "",
							"type": "address"
						}
					],
					"stateMutability": "view",
					"type": "function"
				},
				{
					"inputs": [],
					"name": "pickWinner",
					"outputs": [],
					"stateMutability": "nonpayable",
					"type": "function"
				},
				{
					"inputs": [],
					"name": "winnerAddress",
					"outputs": [
						{
							"internalType": "address payable",
							"name": "",
							"type": "address"
						}
					],
					"stateMutability": "view",
					"type": "function"
				},
				{
					"stateMutability": "payable",
					"type": "receive"
				}
			],
			"devdoc": {
				"kind": "dev",
				"methods": {},
				"version": 1
			},
			"evm": {
				"assembly": "    /* \"lotterySmartContract.sol\":56:1145  contract Lottey {... */\n  mstore(0x40, 0x80)\n    /* \"lotterySmartContract.sol\":188:230  constructor(){... */\n  callvalue\n  dup1\n  iszero\n  tag_1\n  jumpi\n  0x00\n  dup1\n  revert\ntag_1:\n  pop\n    /* \"lotterySmartContract.sol\":216:226  msg.sender */\n  caller\n    /* \"lotterySmartContract.sol\":208:215  manager */\n  0x00\n  dup1\n    /* \"lotterySmartContract.sol\":208:226  manager=msg.sender */\n  0x0100\n  exp\n  dup2\n  sload\n  dup2\n  0xffffffffffffffffffffffffffffffffffffffff\n  mul\n  not\n  and\n  swap1\n  dup4\n  0xffffffffffffffffffffffffffffffffffffffff\n  and\n  mul\n  or\n  swap1\n  sstore\n  pop\n    /* \"lotterySmartContract.sol\":56:1145  contract Lottey {... */\n  dataSize(sub_0)\n  dup1\n  dataOffset(sub_0)\n  0x00\n  codecopy\n  0x00\n  return\nstop\n\nsub_0: assembly {\n        /* \"lotterySmartContract.sol\":56:1145  contract Lottey {... */\n      mstore(0x40, 0x80)\n      jumpi(tag_1, lt(calldatasize, 0x04))\n      shr(0xe0, calldataload(0x00))\n      dup1\n      0x12065fe0\n      eq\n      tag_3\n      jumpi\n      dup1\n      0x35c1d349\n      eq\n      tag_4\n      jumpi\n      dup1\n      0x481c6a75\n      eq\n      tag_5\n      jumpi\n      dup1\n      0x5d495aea\n      eq\n      tag_6\n      jumpi\n      dup1\n      0xaacc5a17\n      eq\n      tag_7\n      jumpi\n      dup1\n      0xed7a4e0b\n      eq\n      tag_8\n      jumpi\n      jump(tag_2)\n    tag_1:\n      jumpi(tag_2, calldatasize)\n        /* \"lotterySmartContract.sol\":290:299  0.3 ether */\n      0x0429d069189e0000\n        /* \"lotterySmartContract.sol\":279:288  msg.value */\n      callvalue\n        /* \"lotterySmartContract.sol\":279:299  msg.value==0.3 ether */\n      eq\n        /* \"lotterySmartContract.sol\":271:328  require(msg.value==0.3 ether , \"value must be 0.5 ether\") */\n      tag_11\n      jumpi\n      mload(0x40)\n      0x08c379a000000000000000000000000000000000000000000000000000000000\n      dup2\n      mstore\n      0x04\n      add\n      tag_12\n      swap1\n      tag_13\n      jump\t// in\n    tag_12:\n      mload(0x40)\n      dup1\n      swap2\n      sub\n      swap1\n      revert\n    tag_11:\n        /* \"lotterySmartContract.sol\":336:348  participants */\n      0x01\n        /* \"lotterySmartContract.sol\":363:373  msg.sender */\n      caller\n        /* \"lotterySmartContract.sol\":336:375  participants.push(payable (msg.sender)) */\n      swap1\n      dup1\n      0x01\n      dup2\n      sload\n      add\n      dup1\n      dup3\n      sstore\n      dup1\n      swap2\n      pop\n      pop\n      0x01\n      swap1\n      sub\n      swap1\n      0x00\n      mstore\n      keccak256(0x00, 0x20)\n      add\n      0x00\n      swap1\n      swap2\n      swap1\n      swap2\n      swap1\n      swap2\n      0x0100\n      exp\n      dup2\n      sload\n      dup2\n      0xffffffffffffffffffffffffffffffffffffffff\n      mul\n      not\n      and\n      swap1\n      dup4\n      0xffffffffffffffffffffffffffffffffffffffff\n      and\n      mul\n      or\n      swap1\n      sstore\n      stop\n        /* \"lotterySmartContract.sol\":56:1145  contract Lottey {... */\n    tag_2:\n      0x00\n      dup1\n      revert\n        /* \"lotterySmartContract.sol\":386:549  function getBalance() public view returns (uint){... */\n    tag_3:\n      callvalue\n      dup1\n      iszero\n      tag_15\n      jumpi\n      0x00\n      dup1\n      revert\n    tag_15:\n      pop\n      tag_16\n      tag_17\n      jump\t// in\n    tag_16:\n      mload(0x40)\n      tag_18\n      swap2\n      swap1\n      tag_19\n      jump\t// in\n    tag_18:\n      mload(0x40)\n      dup1\n      swap2\n      sub\n      swap1\n      return\n        /* \"lotterySmartContract.sol\":104:143  address payable [] public  participants */\n    tag_4:\n      callvalue\n      dup1\n      iszero\n      tag_20\n      jumpi\n      0x00\n      dup1\n      revert\n    tag_20:\n      pop\n      tag_21\n      0x04\n      dup1\n      calldatasize\n      sub\n      dup2\n      add\n      swap1\n      tag_22\n      swap2\n      swap1\n      tag_23\n      jump\t// in\n    tag_22:\n      tag_24\n      jump\t// in\n    tag_21:\n      mload(0x40)\n      tag_25\n      swap2\n      swap1\n      tag_26\n      jump\t// in\n    tag_25:\n      mload(0x40)\n      dup1\n      swap2\n      sub\n      swap1\n      return\n        /* \"lotterySmartContract.sol\":78:100  address public manager */\n    tag_5:\n      callvalue\n      dup1\n      iszero\n      tag_27\n      jumpi\n      0x00\n      dup1\n      revert\n    tag_27:\n      pop\n      tag_28\n      tag_29\n      jump\t// in\n    tag_28:\n      mload(0x40)\n      tag_30\n      swap2\n      swap1\n      tag_31\n      jump\t// in\n    tag_30:\n      mload(0x40)\n      dup1\n      swap2\n      sub\n      swap1\n      return\n        /* \"lotterySmartContract.sol\":749:1134  function pickWinner() public {... */\n    tag_6:\n      callvalue\n      dup1\n      iszero\n      tag_32\n      jumpi\n      0x00\n      dup1\n      revert\n    tag_32:\n      pop\n      tag_33\n      tag_34\n      jump\t// in\n    tag_33:\n      stop\n        /* \"lotterySmartContract.sol\":584:743  function getRandom() public view returns (uint){... */\n    tag_7:\n      callvalue\n      dup1\n      iszero\n      tag_35\n      jumpi\n      0x00\n      dup1\n      revert\n    tag_35:\n      pop\n      tag_36\n      tag_37\n      jump\t// in\n    tag_36:\n      mload(0x40)\n      tag_38\n      swap2\n      swap1\n      tag_19\n      jump\t// in\n    tag_38:\n      mload(0x40)\n      dup1\n      swap2\n      sub\n      swap1\n      return\n        /* \"lotterySmartContract.sol\":147:184  address payable public  winnerAddress */\n    tag_8:\n      callvalue\n      dup1\n      iszero\n      tag_39\n      jumpi\n      0x00\n      dup1\n      revert\n    tag_39:\n      pop\n      tag_40\n      tag_41\n      jump\t// in\n    tag_40:\n      mload(0x40)\n      tag_42\n      swap2\n      swap1\n      tag_26\n      jump\t// in\n    tag_42:\n      mload(0x40)\n      dup1\n      swap2\n      sub\n      swap1\n      return\n        /* \"lotterySmartContract.sol\":386:549  function getBalance() public view returns (uint){... */\n    tag_17:\n        /* \"lotterySmartContract.sol\":429:433  uint */\n      0x00\n        /* \"lotterySmartContract.sol\":465:472  manager */\n      dup1\n      0x00\n      swap1\n      sload\n      swap1\n      0x0100\n      exp\n      swap1\n      div\n      0xffffffffffffffffffffffffffffffffffffffff\n      and\n        /* \"lotterySmartContract.sol\":453:472  msg.sender==manager */\n      0xffffffffffffffffffffffffffffffffffffffff\n      and\n        /* \"lotterySmartContract.sol\":453:463  msg.sender */\n      caller\n        /* \"lotterySmartContract.sol\":453:472  msg.sender==manager */\n      0xffffffffffffffffffffffffffffffffffffffff\n      and\n      eq\n        /* \"lotterySmartContract.sol\":445:501  require(msg.sender==manager ,\"sender must be a manager\") */\n      tag_44\n      jumpi\n      mload(0x40)\n      0x08c379a000000000000000000000000000000000000000000000000000000000\n      dup2\n      mstore\n      0x04\n      add\n      tag_45\n      swap1\n      tag_46\n      jump\t// in\n    tag_45:\n      mload(0x40)\n      dup1\n      swap2\n      sub\n      swap1\n      revert\n    tag_44:\n        /* \"lotterySmartContract.sol\":515:537  address (this).balance */\n      selfbalance\n        /* \"lotterySmartContract.sol\":508:537  return address (this).balance */\n      swap1\n      pop\n        /* \"lotterySmartContract.sol\":386:549  function getBalance() public view returns (uint){... */\n      swap1\n      jump\t// out\n        /* \"lotterySmartContract.sol\":104:143  address payable [] public  participants */\n    tag_24:\n      0x01\n      dup2\n      dup2\n      sload\n      dup2\n      lt\n      tag_47\n      jumpi\n      0x00\n      dup1\n      revert\n    tag_47:\n      swap1\n      0x00\n      mstore\n      keccak256(0x00, 0x20)\n      add\n      0x00\n      swap2\n      pop\n      sload\n      swap1\n      0x0100\n      exp\n      swap1\n      div\n      0xffffffffffffffffffffffffffffffffffffffff\n      and\n      dup2\n      jump\t// out\n        /* \"lotterySmartContract.sol\":78:100  address public manager */\n    tag_29:\n      0x00\n      dup1\n      sload\n      swap1\n      0x0100\n      exp\n      swap1\n      div\n      0xffffffffffffffffffffffffffffffffffffffff\n      and\n      dup2\n      jump\t// out\n        /* \"lotterySmartContract.sol\":749:1134  function pickWinner() public {... */\n    tag_34:\n        /* \"lotterySmartContract.sol\":809:816  manager */\n      0x00\n      dup1\n      sload\n      swap1\n      0x0100\n      exp\n      swap1\n      div\n      0xffffffffffffffffffffffffffffffffffffffff\n      and\n        /* \"lotterySmartContract.sol\":797:816  msg.sender==manager */\n      0xffffffffffffffffffffffffffffffffffffffff\n      and\n        /* \"lotterySmartContract.sol\":797:807  msg.sender */\n      caller\n        /* \"lotterySmartContract.sol\":797:816  msg.sender==manager */\n      0xffffffffffffffffffffffffffffffffffffffff\n      and\n      eq\n        /* \"lotterySmartContract.sol\":789:836  require(msg.sender==manager ,\"must be manager\") */\n      tag_50\n      jumpi\n      mload(0x40)\n      0x08c379a000000000000000000000000000000000000000000000000000000000\n      dup2\n      mstore\n      0x04\n      add\n      tag_51\n      swap1\n      tag_52\n      jump\t// in\n    tag_51:\n      mload(0x40)\n      dup1\n      swap2\n      sub\n      swap1\n      revert\n    tag_50:\n        /* \"lotterySmartContract.sol\":875:876  2 */\n      0x02\n        /* \"lotterySmartContract.sol\":854:866  participants */\n      0x01\n        /* \"lotterySmartContract.sol\":854:873  participants.length */\n      dup1\n      sload\n      swap1\n      pop\n        /* \"lotterySmartContract.sol\":854:876  participants.length>=2 */\n      lt\n      iszero\n        /* \"lotterySmartContract.sol\":846:905  require(participants.length>=2, \"require more the 2 users\") */\n      tag_53\n      jumpi\n      mload(0x40)\n      0x08c379a000000000000000000000000000000000000000000000000000000000\n      dup2\n      mstore\n      0x04\n      add\n      tag_54\n      swap1\n      tag_55\n      jump\t// in\n    tag_54:\n      mload(0x40)\n      dup1\n      swap2\n      sub\n      swap1\n      revert\n    tag_53:\n        /* \"lotterySmartContract.sol\":915:921  uint r */\n      0x00\n        /* \"lotterySmartContract.sol\":923:934  getRandom() */\n      tag_56\n        /* \"lotterySmartContract.sol\":923:932  getRandom */\n      tag_37\n        /* \"lotterySmartContract.sol\":923:934  getRandom() */\n      jump\t// in\n    tag_56:\n        /* \"lotterySmartContract.sol\":915:934  uint r= getRandom() */\n      swap1\n      pop\n        /* \"lotterySmartContract.sol\":944:954  uint index */\n      0x00\n        /* \"lotterySmartContract.sol\":958:970  participants */\n      0x01\n        /* \"lotterySmartContract.sol\":958:977  participants.length */\n      dup1\n      sload\n      swap1\n      pop\n        /* \"lotterySmartContract.sol\":956:957  r */\n      dup3\n        /* \"lotterySmartContract.sol\":956:977  r%participants.length */\n      tag_57\n      swap2\n      swap1\n      tag_58\n      jump\t// in\n    tag_57:\n        /* \"lotterySmartContract.sol\":944:977  uint index= r%participants.length */\n      swap1\n      pop\n        /* \"lotterySmartContract.sol\":1029:1041  participants */\n      0x01\n        /* \"lotterySmartContract.sol\":1042:1047  index */\n      dup2\n        /* \"lotterySmartContract.sol\":1029:1048  participants[index] */\n      dup2\n      sload\n      dup2\n      lt\n      tag_59\n      jumpi\n      tag_60\n      tag_61\n      jump\t// in\n    tag_60:\n    tag_59:\n      swap1\n      0x00\n      mstore\n      keccak256(0x00, 0x20)\n      add\n      0x00\n      swap1\n      sload\n      swap1\n      0x0100\n      exp\n      swap1\n      div\n      0xffffffffffffffffffffffffffffffffffffffff\n      and\n        /* \"lotterySmartContract.sol\":1015:1028  winnerAddress */\n      0x02\n      0x00\n        /* \"lotterySmartContract.sol\":1015:1048  winnerAddress=participants[index] */\n      0x0100\n      exp\n      dup2\n      sload\n      dup2\n      0xffffffffffffffffffffffffffffffffffffffff\n      mul\n      not\n      and\n      swap1\n      dup4\n      0xffffffffffffffffffffffffffffffffffffffff\n      and\n      mul\n      or\n      swap1\n      sstore\n      pop\n        /* \"lotterySmartContract.sol\":1059:1072  winnerAddress */\n      0x02\n      0x00\n      swap1\n      sload\n      swap1\n      0x0100\n      exp\n      swap1\n      div\n      0xffffffffffffffffffffffffffffffffffffffff\n      and\n        /* \"lotterySmartContract.sol\":1059:1081  winnerAddress.transfer */\n      0xffffffffffffffffffffffffffffffffffffffff\n      and\n        /* \"lotterySmartContract.sol\":1059:1095  winnerAddress.transfer(getBalance()) */\n      0x08fc\n        /* \"lotterySmartContract.sol\":1082:1094  getBalance() */\n      tag_63\n        /* \"lotterySmartContract.sol\":1082:1092  getBalance */\n      tag_17\n        /* \"lotterySmartContract.sol\":1082:1094  getBalance() */\n      jump\t// in\n    tag_63:\n        /* \"lotterySmartContract.sol\":1059:1095  winnerAddress.transfer(getBalance()) */\n      swap1\n      dup2\n      iszero\n      mul\n      swap1\n      mload(0x40)\n      0x00\n      mload(0x40)\n      dup1\n      dup4\n      sub\n      dup2\n      dup6\n      dup9\n      dup9\n      call\n      swap4\n      pop\n      pop\n      pop\n      pop\n      iszero\n      dup1\n      iszero\n      tag_65\n      jumpi\n      returndatasize\n      0x00\n      dup1\n      returndatacopy\n      revert(0x00, returndatasize)\n    tag_65:\n      pop\n        /* \"lotterySmartContract.sol\":1112:1124  participants */\n      0x01\n      0x00\n        /* \"lotterySmartContract.sol\":1105:1124  delete participants */\n      tag_66\n      swap2\n      swap1\n      tag_67\n      jump\t// in\n    tag_66:\n        /* \"lotterySmartContract.sol\":778:1134  {... */\n      pop\n      pop\n        /* \"lotterySmartContract.sol\":749:1134  function pickWinner() public {... */\n      jump\t// out\n        /* \"lotterySmartContract.sol\":584:743  function getRandom() public view returns (uint){... */\n    tag_37:\n        /* \"lotterySmartContract.sol\":626:630  uint */\n      0x00\n        /* \"lotterySmartContract.sol\":681:697  block.difficulty */\n      prevrandao\n        /* \"lotterySmartContract.sol\":698:713  block.timestamp */\n      timestamp\n        /* \"lotterySmartContract.sol\":714:726  participants */\n      0x01\n        /* \"lotterySmartContract.sol\":714:733  participants.length */\n      dup1\n      sload\n      swap1\n      pop\n        /* \"lotterySmartContract.sol\":664:734  abi.encodePacked(block.difficulty,block.timestamp,participants.length) */\n      add(0x20, mload(0x40))\n      tag_69\n      swap4\n      swap3\n      swap2\n      swap1\n      tag_70\n      jump\t// in\n    tag_69:\n      mload(0x40)\n      0x20\n      dup2\n      dup4\n      sub\n      sub\n      dup2\n      mstore\n      swap1\n      0x40\n      mstore\n        /* \"lotterySmartContract.sol\":653:735  keccak256( abi.encodePacked(block.difficulty,block.timestamp,participants.length)) */\n      dup1\n      mload\n      swap1\n      0x20\n      add\n      keccak256\n        /* \"lotterySmartContract.sol\":647:736  uint( keccak256( abi.encodePacked(block.difficulty,block.timestamp,participants.length))) */\n      0x00\n      shr\n        /* \"lotterySmartContract.sol\":639:736  return  uint( keccak256( abi.encodePacked(block.difficulty,block.timestamp,participants.length))) */\n      swap1\n      pop\n        /* \"lotterySmartContract.sol\":584:743  function getRandom() public view returns (uint){... */\n      swap1\n      jump\t// out\n        /* \"lotterySmartContract.sol\":147:184  address payable public  winnerAddress */\n    tag_41:\n      0x02\n      0x00\n      swap1\n      sload\n      swap1\n      0x0100\n      exp\n      swap1\n      div\n      0xffffffffffffffffffffffffffffffffffffffff\n      and\n      dup2\n      jump\t// out\n    tag_67:\n      pop\n      dup1\n      sload\n      0x00\n      dup3\n      sstore\n      swap1\n      0x00\n      mstore\n      keccak256(0x00, 0x20)\n      swap1\n      dup2\n      add\n      swap1\n      tag_72\n      swap2\n      swap1\n      tag_73\n      jump\t// in\n    tag_72:\n      pop\n      jump\t// out\n    tag_73:\n    tag_74:\n      dup1\n      dup3\n      gt\n      iszero\n      tag_75\n      jumpi\n      0x00\n      dup2\n      0x00\n      swap1\n      sstore\n      pop\n      0x01\n      add\n      jump(tag_74)\n    tag_75:\n      pop\n      swap1\n      jump\t// out\n        /* \"#utility.yul\":7:176   */\n    tag_76:\n        /* \"#utility.yul\":91:102   */\n      0x00\n        /* \"#utility.yul\":125:131   */\n      dup3\n        /* \"#utility.yul\":120:123   */\n      dup3\n        /* \"#utility.yul\":113:132   */\n      mstore\n        /* \"#utility.yul\":165:169   */\n      0x20\n        /* \"#utility.yul\":160:163   */\n      dup3\n        /* \"#utility.yul\":156:170   */\n      add\n        /* \"#utility.yul\":141:170   */\n      swap1\n      pop\n        /* \"#utility.yul\":7:176   */\n      swap3\n      swap2\n      pop\n      pop\n      jump\t// out\n        /* \"#utility.yul\":182:355   */\n    tag_77:\n        /* \"#utility.yul\":322:347   */\n      0x76616c7565206d75737420626520302e35206574686572000000000000000000\n        /* \"#utility.yul\":318:319   */\n      0x00\n        /* \"#utility.yul\":310:316   */\n      dup3\n        /* \"#utility.yul\":306:320   */\n      add\n        /* \"#utility.yul\":299:348   */\n      mstore\n        /* \"#utility.yul\":182:355   */\n      pop\n      jump\t// out\n        /* \"#utility.yul\":361:727   */\n    tag_78:\n        /* \"#utility.yul\":503:506   */\n      0x00\n        /* \"#utility.yul\":524:591   */\n      tag_104\n        /* \"#utility.yul\":588:590   */\n      0x17\n        /* \"#utility.yul\":583:586   */\n      dup4\n        /* \"#utility.yul\":524:591   */\n      tag_76\n      jump\t// in\n    tag_104:\n        /* \"#utility.yul\":517:591   */\n      swap2\n      pop\n        /* \"#utility.yul\":600:693   */\n      tag_105\n        /* \"#utility.yul\":689:692   */\n      dup3\n        /* \"#utility.yul\":600:693   */\n      tag_77\n      jump\t// in\n    tag_105:\n        /* \"#utility.yul\":718:720   */\n      0x20\n        /* \"#utility.yul\":713:716   */\n      dup3\n        /* \"#utility.yul\":709:721   */\n      add\n        /* \"#utility.yul\":702:721   */\n      swap1\n      pop\n        /* \"#utility.yul\":361:727   */\n      swap2\n      swap1\n      pop\n      jump\t// out\n        /* \"#utility.yul\":733:1152   */\n    tag_13:\n        /* \"#utility.yul\":899:903   */\n      0x00\n        /* \"#utility.yul\":937:939   */\n      0x20\n        /* \"#utility.yul\":926:935   */\n      dup3\n        /* \"#utility.yul\":922:940   */\n      add\n        /* \"#utility.yul\":914:940   */\n      swap1\n      pop\n        /* \"#utility.yul\":986:995   */\n      dup2\n        /* \"#utility.yul\":980:984   */\n      dup2\n        /* \"#utility.yul\":976:996   */\n      sub\n        /* \"#utility.yul\":972:973   */\n      0x00\n        /* \"#utility.yul\":961:970   */\n      dup4\n        /* \"#utility.yul\":957:974   */\n      add\n        /* \"#utility.yul\":950:997   */\n      mstore\n        /* \"#utility.yul\":1014:1145   */\n      tag_107\n        /* \"#utility.yul\":1140:1144   */\n      dup2\n        /* \"#utility.yul\":1014:1145   */\n      tag_78\n      jump\t// in\n    tag_107:\n        /* \"#utility.yul\":1006:1145   */\n      swap1\n      pop\n        /* \"#utility.yul\":733:1152   */\n      swap2\n      swap1\n      pop\n      jump\t// out\n        /* \"#utility.yul\":1158:1235   */\n    tag_79:\n        /* \"#utility.yul\":1195:1202   */\n      0x00\n        /* \"#utility.yul\":1224:1229   */\n      dup2\n        /* \"#utility.yul\":1213:1229   */\n      swap1\n      pop\n        /* \"#utility.yul\":1158:1235   */\n      swap2\n      swap1\n      pop\n      jump\t// out\n        /* \"#utility.yul\":1241:1359   */\n    tag_80:\n        /* \"#utility.yul\":1328:1352   */\n      tag_110\n        /* \"#utility.yul\":1346:1351   */\n      dup2\n        /* \"#utility.yul\":1328:1352   */\n      tag_79\n      jump\t// in\n    tag_110:\n        /* \"#utility.yul\":1323:1326   */\n      dup3\n        /* \"#utility.yul\":1316:1353   */\n      mstore\n        /* \"#utility.yul\":1241:1359   */\n      pop\n      pop\n      jump\t// out\n        /* \"#utility.yul\":1365:1587   */\n    tag_19:\n        /* \"#utility.yul\":1458:1462   */\n      0x00\n        /* \"#utility.yul\":1496:1498   */\n      0x20\n        /* \"#utility.yul\":1485:1494   */\n      dup3\n        /* \"#utility.yul\":1481:1499   */\n      add\n        /* \"#utility.yul\":1473:1499   */\n      swap1\n      pop\n        /* \"#utility.yul\":1509:1580   */\n      tag_112\n        /* \"#utility.yul\":1577:1578   */\n      0x00\n        /* \"#utility.yul\":1566:1575   */\n      dup4\n        /* \"#utility.yul\":1562:1579   */\n      add\n        /* \"#utility.yul\":1553:1559   */\n      dup5\n        /* \"#utility.yul\":1509:1580   */\n      tag_80\n      jump\t// in\n    tag_112:\n        /* \"#utility.yul\":1365:1587   */\n      swap3\n      swap2\n      pop\n      pop\n      jump\t// out\n        /* \"#utility.yul\":1674:1791   */\n    tag_82:\n        /* \"#utility.yul\":1783:1784   */\n      0x00\n        /* \"#utility.yul\":1780:1781   */\n      dup1\n        /* \"#utility.yul\":1773:1785   */\n      revert\n        /* \"#utility.yul\":1920:2042   */\n    tag_84:\n        /* \"#utility.yul\":1993:2017   */\n      tag_117\n        /* \"#utility.yul\":2011:2016   */\n      dup2\n        /* \"#utility.yul\":1993:2017   */\n      tag_79\n      jump\t// in\n    tag_117:\n        /* \"#utility.yul\":1986:1991   */\n      dup2\n        /* \"#utility.yul\":1983:2018   */\n      eq\n        /* \"#utility.yul\":1973:2036   */\n      tag_118\n      jumpi\n        /* \"#utility.yul\":2032:2033   */\n      0x00\n        /* \"#utility.yul\":2029:2030   */\n      dup1\n        /* \"#utility.yul\":2022:2034   */\n      revert\n        /* \"#utility.yul\":1973:2036   */\n    tag_118:\n        /* \"#utility.yul\":1920:2042   */\n      pop\n      jump\t// out\n        /* \"#utility.yul\":2048:2187   */\n    tag_85:\n        /* \"#utility.yul\":2094:2099   */\n      0x00\n        /* \"#utility.yul\":2132:2138   */\n      dup2\n        /* \"#utility.yul\":2119:2139   */\n      calldataload\n        /* \"#utility.yul\":2110:2139   */\n      swap1\n      pop\n        /* \"#utility.yul\":2148:2181   */\n      tag_120\n        /* \"#utility.yul\":2175:2180   */\n      dup2\n        /* \"#utility.yul\":2148:2181   */\n      tag_84\n      jump\t// in\n    tag_120:\n        /* \"#utility.yul\":2048:2187   */\n      swap3\n      swap2\n      pop\n      pop\n      jump\t// out\n        /* \"#utility.yul\":2193:2522   */\n    tag_23:\n        /* \"#utility.yul\":2252:2258   */\n      0x00\n        /* \"#utility.yul\":2301:2303   */\n      0x20\n        /* \"#utility.yul\":2289:2298   */\n      dup3\n        /* \"#utility.yul\":2280:2287   */\n      dup5\n        /* \"#utility.yul\":2276:2299   */\n      sub\n        /* \"#utility.yul\":2272:2304   */\n      slt\n        /* \"#utility.yul\":2269:2388   */\n      iszero\n      tag_122\n      jumpi\n        /* \"#utility.yul\":2307:2386   */\n      tag_123\n      tag_82\n      jump\t// in\n    tag_123:\n        /* \"#utility.yul\":2269:2388   */\n    tag_122:\n        /* \"#utility.yul\":2427:2428   */\n      0x00\n        /* \"#utility.yul\":2452:2505   */\n      tag_124\n        /* \"#utility.yul\":2497:2504   */\n      dup5\n        /* \"#utility.yul\":2488:2494   */\n      dup3\n        /* \"#utility.yul\":2477:2486   */\n      dup6\n        /* \"#utility.yul\":2473:2495   */\n      add\n        /* \"#utility.yul\":2452:2505   */\n      tag_85\n      jump\t// in\n    tag_124:\n        /* \"#utility.yul\":2442:2505   */\n      swap2\n      pop\n        /* \"#utility.yul\":2398:2515   */\n      pop\n        /* \"#utility.yul\":2193:2522   */\n      swap3\n      swap2\n      pop\n      pop\n      jump\t// out\n        /* \"#utility.yul\":2528:2654   */\n    tag_86:\n        /* \"#utility.yul\":2565:2572   */\n      0x00\n        /* \"#utility.yul\":2605:2647   */\n      0xffffffffffffffffffffffffffffffffffffffff\n        /* \"#utility.yul\":2598:2603   */\n      dup3\n        /* \"#utility.yul\":2594:2648   */\n      and\n        /* \"#utility.yul\":2583:2648   */\n      swap1\n      pop\n        /* \"#utility.yul\":2528:2654   */\n      swap2\n      swap1\n      pop\n      jump\t// out\n        /* \"#utility.yul\":2660:2764   */\n    tag_87:\n        /* \"#utility.yul\":2705:2712   */\n      0x00\n        /* \"#utility.yul\":2734:2758   */\n      tag_127\n        /* \"#utility.yul\":2752:2757   */\n      dup3\n        /* \"#utility.yul\":2734:2758   */\n      tag_86\n      jump\t// in\n    tag_127:\n        /* \"#utility.yul\":2723:2758   */\n      swap1\n      pop\n        /* \"#utility.yul\":2660:2764   */\n      swap2\n      swap1\n      pop\n      jump\t// out\n        /* \"#utility.yul\":2770:2912   */\n    tag_88:\n        /* \"#utility.yul\":2873:2905   */\n      tag_129\n        /* \"#utility.yul\":2899:2904   */\n      dup2\n        /* \"#utility.yul\":2873:2905   */\n      tag_87\n      jump\t// in\n    tag_129:\n        /* \"#utility.yul\":2868:2871   */\n      dup3\n        /* \"#utility.yul\":2861:2906   */\n      mstore\n        /* \"#utility.yul\":2770:2912   */\n      pop\n      pop\n      jump\t// out\n        /* \"#utility.yul\":2918:3172   */\n    tag_26:\n        /* \"#utility.yul\":3027:3031   */\n      0x00\n        /* \"#utility.yul\":3065:3067   */\n      0x20\n        /* \"#utility.yul\":3054:3063   */\n      dup3\n        /* \"#utility.yul\":3050:3068   */\n      add\n        /* \"#utility.yul\":3042:3068   */\n      swap1\n      pop\n        /* \"#utility.yul\":3078:3165   */\n      tag_131\n        /* \"#utility.yul\":3162:3163   */\n      0x00\n        /* \"#utility.yul\":3151:3160   */\n      dup4\n        /* \"#utility.yul\":3147:3164   */\n      add\n        /* \"#utility.yul\":3138:3144   */\n      dup5\n        /* \"#utility.yul\":3078:3165   */\n      tag_88\n      jump\t// in\n    tag_131:\n        /* \"#utility.yul\":2918:3172   */\n      swap3\n      swap2\n      pop\n      pop\n      jump\t// out\n        /* \"#utility.yul\":3178:3274   */\n    tag_89:\n        /* \"#utility.yul\":3215:3222   */\n      0x00\n        /* \"#utility.yul\":3244:3268   */\n      tag_133\n        /* \"#utility.yul\":3262:3267   */\n      dup3\n        /* \"#utility.yul\":3244:3268   */\n      tag_86\n      jump\t// in\n    tag_133:\n        /* \"#utility.yul\":3233:3268   */\n      swap1\n      pop\n        /* \"#utility.yul\":3178:3274   */\n      swap2\n      swap1\n      pop\n      jump\t// out\n        /* \"#utility.yul\":3280:3398   */\n    tag_90:\n        /* \"#utility.yul\":3367:3391   */\n      tag_135\n        /* \"#utility.yul\":3385:3390   */\n      dup2\n        /* \"#utility.yul\":3367:3391   */\n      tag_89\n      jump\t// in\n    tag_135:\n        /* \"#utility.yul\":3362:3365   */\n      dup3\n        /* \"#utility.yul\":3355:3392   */\n      mstore\n        /* \"#utility.yul\":3280:3398   */\n      pop\n      pop\n      jump\t// out\n        /* \"#utility.yul\":3404:3626   */\n    tag_31:\n        /* \"#utility.yul\":3497:3501   */\n      0x00\n        /* \"#utility.yul\":3535:3537   */\n      0x20\n        /* \"#utility.yul\":3524:3533   */\n      dup3\n        /* \"#utility.yul\":3520:3538   */\n      add\n        /* \"#utility.yul\":3512:3538   */\n      swap1\n      pop\n        /* \"#utility.yul\":3548:3619   */\n      tag_137\n        /* \"#utility.yul\":3616:3617   */\n      0x00\n        /* \"#utility.yul\":3605:3614   */\n      dup4\n        /* \"#utility.yul\":3601:3618   */\n      add\n        /* \"#utility.yul\":3592:3598   */\n      dup5\n        /* \"#utility.yul\":3548:3619   */\n      tag_90\n      jump\t// in\n    tag_137:\n        /* \"#utility.yul\":3404:3626   */\n      swap3\n      swap2\n      pop\n      pop\n      jump\t// out\n        /* \"#utility.yul\":3632:3806   */\n    tag_91:\n        /* \"#utility.yul\":3772:3798   */\n      0x73656e646572206d7573742062652061206d616e616765720000000000000000\n        /* \"#utility.yul\":3768:3769   */\n      0x00\n        /* \"#utility.yul\":3760:3766   */\n      dup3\n        /* \"#utility.yul\":3756:3770   */\n      add\n        /* \"#utility.yul\":3749:3799   */\n      mstore\n        /* \"#utility.yul\":3632:3806   */\n      pop\n      jump\t// out\n        /* \"#utility.yul\":3812:4178   */\n    tag_92:\n        /* \"#utility.yul\":3954:3957   */\n      0x00\n        /* \"#utility.yul\":3975:4042   */\n      tag_140\n        /* \"#utility.yul\":4039:4041   */\n      0x18\n        /* \"#utility.yul\":4034:4037   */\n      dup4\n        /* \"#utility.yul\":3975:4042   */\n      tag_76\n      jump\t// in\n    tag_140:\n        /* \"#utility.yul\":3968:4042   */\n      swap2\n      pop\n        /* \"#utility.yul\":4051:4144   */\n      tag_141\n        /* \"#utility.yul\":4140:4143   */\n      dup3\n        /* \"#utility.yul\":4051:4144   */\n      tag_91\n      jump\t// in\n    tag_141:\n        /* \"#utility.yul\":4169:4171   */\n      0x20\n        /* \"#utility.yul\":4164:4167   */\n      dup3\n        /* \"#utility.yul\":4160:4172   */\n      add\n        /* \"#utility.yul\":4153:4172   */\n      swap1\n      pop\n        /* \"#utility.yul\":3812:4178   */\n      swap2\n      swap1\n      pop\n      jump\t// out\n        /* \"#utility.yul\":4184:4603   */\n    tag_46:\n        /* \"#utility.yul\":4350:4354   */\n      0x00\n        /* \"#utility.yul\":4388:4390   */\n      0x20\n        /* \"#utility.yul\":4377:4386   */\n      dup3\n        /* \"#utility.yul\":4373:4391   */\n      add\n        /* \"#utility.yul\":4365:4391   */\n      swap1\n      pop\n        /* \"#utility.yul\":4437:4446   */\n      dup2\n        /* \"#utility.yul\":4431:4435   */\n      dup2\n        /* \"#utility.yul\":4427:4447   */\n      sub\n        /* \"#utility.yul\":4423:4424   */\n      0x00\n        /* \"#utility.yul\":4412:4421   */\n      dup4\n        /* \"#utility.yul\":4408:4425   */\n      add\n        /* \"#utility.yul\":4401:4448   */\n      mstore\n        /* \"#utility.yul\":4465:4596   */\n      tag_143\n        /* \"#utility.yul\":4591:4595   */\n      dup2\n        /* \"#utility.yul\":4465:4596   */\n      tag_92\n      jump\t// in\n    tag_143:\n        /* \"#utility.yul\":4457:4596   */\n      swap1\n      pop\n        /* \"#utility.yul\":4184:4603   */\n      swap2\n      swap1\n      pop\n      jump\t// out\n        /* \"#utility.yul\":4609:4774   */\n    tag_93:\n        /* \"#utility.yul\":4749:4766   */\n      0x6d757374206265206d616e616765720000000000000000000000000000000000\n        /* \"#utility.yul\":4745:4746   */\n      0x00\n        /* \"#utility.yul\":4737:4743   */\n      dup3\n        /* \"#utility.yul\":4733:4747   */\n      add\n        /* \"#utility.yul\":4726:4767   */\n      mstore\n        /* \"#utility.yul\":4609:4774   */\n      pop\n      jump\t// out\n        /* \"#utility.yul\":4780:5146   */\n    tag_94:\n        /* \"#utility.yul\":4922:4925   */\n      0x00\n        /* \"#utility.yul\":4943:5010   */\n      tag_146\n        /* \"#utility.yul\":5007:5009   */\n      0x0f\n        /* \"#utility.yul\":5002:5005   */\n      dup4\n        /* \"#utility.yul\":4943:5010   */\n      tag_76\n      jump\t// in\n    tag_146:\n        /* \"#utility.yul\":4936:5010   */\n      swap2\n      pop\n        /* \"#utility.yul\":5019:5112   */\n      tag_147\n        /* \"#utility.yul\":5108:5111   */\n      dup3\n        /* \"#utility.yul\":5019:5112   */\n      tag_93\n      jump\t// in\n    tag_147:\n        /* \"#utility.yul\":5137:5139   */\n      0x20\n        /* \"#utility.yul\":5132:5135   */\n      dup3\n        /* \"#utility.yul\":5128:5140   */\n      add\n        /* \"#utility.yul\":5121:5140   */\n      swap1\n      pop\n        /* \"#utility.yul\":4780:5146   */\n      swap2\n      swap1\n      pop\n      jump\t// out\n        /* \"#utility.yul\":5152:5571   */\n    tag_52:\n        /* \"#utility.yul\":5318:5322   */\n      0x00\n        /* \"#utility.yul\":5356:5358   */\n      0x20\n        /* \"#utility.yul\":5345:5354   */\n      dup3\n        /* \"#utility.yul\":5341:5359   */\n      add\n        /* \"#utility.yul\":5333:5359   */\n      swap1\n      pop\n        /* \"#utility.yul\":5405:5414   */\n      dup2\n        /* \"#utility.yul\":5399:5403   */\n      dup2\n        /* \"#utility.yul\":5395:5415   */\n      sub\n        /* \"#utility.yul\":5391:5392   */\n      0x00\n        /* \"#utility.yul\":5380:5389   */\n      dup4\n        /* \"#utility.yul\":5376:5393   */\n      add\n        /* \"#utility.yul\":5369:5416   */\n      mstore\n        /* \"#utility.yul\":5433:5564   */\n      tag_149\n        /* \"#utility.yul\":5559:5563   */\n      dup2\n        /* \"#utility.yul\":5433:5564   */\n      tag_94\n      jump\t// in\n    tag_149:\n        /* \"#utility.yul\":5425:5564   */\n      swap1\n      pop\n        /* \"#utility.yul\":5152:5571   */\n      swap2\n      swap1\n      pop\n      jump\t// out\n        /* \"#utility.yul\":5577:5751   */\n    tag_95:\n        /* \"#utility.yul\":5717:5743   */\n      0x72657175697265206d6f72652074686520322075736572730000000000000000\n        /* \"#utility.yul\":5713:5714   */\n      0x00\n        /* \"#utility.yul\":5705:5711   */\n      dup3\n        /* \"#utility.yul\":5701:5715   */\n      add\n        /* \"#utility.yul\":5694:5744   */\n      mstore\n        /* \"#utility.yul\":5577:5751   */\n      pop\n      jump\t// out\n        /* \"#utility.yul\":5757:6123   */\n    tag_96:\n        /* \"#utility.yul\":5899:5902   */\n      0x00\n        /* \"#utility.yul\":5920:5987   */\n      tag_152\n        /* \"#utility.yul\":5984:5986   */\n      0x18\n        /* \"#utility.yul\":5979:5982   */\n      dup4\n        /* \"#utility.yul\":5920:5987   */\n      tag_76\n      jump\t// in\n    tag_152:\n        /* \"#utility.yul\":5913:5987   */\n      swap2\n      pop\n        /* \"#utility.yul\":5996:6089   */\n      tag_153\n        /* \"#utility.yul\":6085:6088   */\n      dup3\n        /* \"#utility.yul\":5996:6089   */\n      tag_95\n      jump\t// in\n    tag_153:\n        /* \"#utility.yul\":6114:6116   */\n      0x20\n        /* \"#utility.yul\":6109:6112   */\n      dup3\n        /* \"#utility.yul\":6105:6117   */\n      add\n        /* \"#utility.yul\":6098:6117   */\n      swap1\n      pop\n        /* \"#utility.yul\":5757:6123   */\n      swap2\n      swap1\n      pop\n      jump\t// out\n        /* \"#utility.yul\":6129:6548   */\n    tag_55:\n        /* \"#utility.yul\":6295:6299   */\n      0x00\n        /* \"#utility.yul\":6333:6335   */\n      0x20\n        /* \"#utility.yul\":6322:6331   */\n      dup3\n        /* \"#utility.yul\":6318:6336   */\n      add\n        /* \"#utility.yul\":6310:6336   */\n      swap1\n      pop\n        /* \"#utility.yul\":6382:6391   */\n      dup2\n        /* \"#utility.yul\":6376:6380   */\n      dup2\n        /* \"#utility.yul\":6372:6392   */\n      sub\n        /* \"#utility.yul\":6368:6369   */\n      0x00\n        /* \"#utility.yul\":6357:6366   */\n      dup4\n        /* \"#utility.yul\":6353:6370   */\n      add\n        /* \"#utility.yul\":6346:6393   */\n      mstore\n        /* \"#utility.yul\":6410:6541   */\n      tag_155\n        /* \"#utility.yul\":6536:6540   */\n      dup2\n        /* \"#utility.yul\":6410:6541   */\n      tag_96\n      jump\t// in\n    tag_155:\n        /* \"#utility.yul\":6402:6541   */\n      swap1\n      pop\n        /* \"#utility.yul\":6129:6548   */\n      swap2\n      swap1\n      pop\n      jump\t// out\n        /* \"#utility.yul\":6554:6734   */\n    tag_97:\n        /* \"#utility.yul\":6602:6679   */\n      0x4e487b7100000000000000000000000000000000000000000000000000000000\n        /* \"#utility.yul\":6599:6600   */\n      0x00\n        /* \"#utility.yul\":6592:6680   */\n      mstore\n        /* \"#utility.yul\":6699:6703   */\n      0x12\n        /* \"#utility.yul\":6696:6697   */\n      0x04\n        /* \"#utility.yul\":6689:6704   */\n      mstore\n        /* \"#utility.yul\":6723:6727   */\n      0x24\n        /* \"#utility.yul\":6720:6721   */\n      0x00\n        /* \"#utility.yul\":6713:6728   */\n      revert\n        /* \"#utility.yul\":6740:6916   */\n    tag_58:\n        /* \"#utility.yul\":6772:6773   */\n      0x00\n        /* \"#utility.yul\":6789:6809   */\n      tag_158\n        /* \"#utility.yul\":6807:6808   */\n      dup3\n        /* \"#utility.yul\":6789:6809   */\n      tag_79\n      jump\t// in\n    tag_158:\n        /* \"#utility.yul\":6784:6809   */\n      swap2\n      pop\n        /* \"#utility.yul\":6823:6843   */\n      tag_159\n        /* \"#utility.yul\":6841:6842   */\n      dup4\n        /* \"#utility.yul\":6823:6843   */\n      tag_79\n      jump\t// in\n    tag_159:\n        /* \"#utility.yul\":6818:6843   */\n      swap3\n      pop\n        /* \"#utility.yul\":6862:6863   */\n      dup3\n        /* \"#utility.yul\":6852:6887   */\n      tag_160\n      jumpi\n        /* \"#utility.yul\":6867:6885   */\n      tag_161\n      tag_97\n      jump\t// in\n    tag_161:\n        /* \"#utility.yul\":6852:6887   */\n    tag_160:\n        /* \"#utility.yul\":6908:6909   */\n      dup3\n        /* \"#utility.yul\":6905:6906   */\n      dup3\n        /* \"#utility.yul\":6901:6910   */\n      mod\n        /* \"#utility.yul\":6896:6910   */\n      swap1\n      pop\n        /* \"#utility.yul\":6740:6916   */\n      swap3\n      swap2\n      pop\n      pop\n      jump\t// out\n        /* \"#utility.yul\":6922:7102   */\n    tag_61:\n        /* \"#utility.yul\":6970:7047   */\n      0x4e487b7100000000000000000000000000000000000000000000000000000000\n        /* \"#utility.yul\":6967:6968   */\n      0x00\n        /* \"#utility.yul\":6960:7048   */\n      mstore\n        /* \"#utility.yul\":7067:7071   */\n      0x32\n        /* \"#utility.yul\":7064:7065   */\n      0x04\n        /* \"#utility.yul\":7057:7072   */\n      mstore\n        /* \"#utility.yul\":7091:7095   */\n      0x24\n        /* \"#utility.yul\":7088:7089   */\n      0x00\n        /* \"#utility.yul\":7081:7096   */\n      revert\n        /* \"#utility.yul\":7108:7187   */\n    tag_98:\n        /* \"#utility.yul\":7147:7154   */\n      0x00\n        /* \"#utility.yul\":7176:7181   */\n      dup2\n        /* \"#utility.yul\":7165:7181   */\n      swap1\n      pop\n        /* \"#utility.yul\":7108:7187   */\n      swap2\n      swap1\n      pop\n      jump\t// out\n        /* \"#utility.yul\":7193:7350   */\n    tag_99:\n        /* \"#utility.yul\":7298:7343   */\n      tag_165\n        /* \"#utility.yul\":7318:7342   */\n      tag_166\n        /* \"#utility.yul\":7336:7341   */\n      dup3\n        /* \"#utility.yul\":7318:7342   */\n      tag_79\n      jump\t// in\n    tag_166:\n        /* \"#utility.yul\":7298:7343   */\n      tag_98\n      jump\t// in\n    tag_165:\n        /* \"#utility.yul\":7293:7296   */\n      dup3\n        /* \"#utility.yul\":7286:7344   */\n      mstore\n        /* \"#utility.yul\":7193:7350   */\n      pop\n      pop\n      jump\t// out\n        /* \"#utility.yul\":7356:7894   */\n    tag_70:\n        /* \"#utility.yul\":7524:7527   */\n      0x00\n        /* \"#utility.yul\":7539:7614   */\n      tag_168\n        /* \"#utility.yul\":7610:7613   */\n      dup3\n        /* \"#utility.yul\":7601:7607   */\n      dup7\n        /* \"#utility.yul\":7539:7614   */\n      tag_99\n      jump\t// in\n    tag_168:\n        /* \"#utility.yul\":7639:7641   */\n      0x20\n        /* \"#utility.yul\":7634:7637   */\n      dup3\n        /* \"#utility.yul\":7630:7642   */\n      add\n        /* \"#utility.yul\":7623:7642   */\n      swap2\n      pop\n        /* \"#utility.yul\":7652:7727   */\n      tag_169\n        /* \"#utility.yul\":7723:7726   */\n      dup3\n        /* \"#utility.yul\":7714:7720   */\n      dup6\n        /* \"#utility.yul\":7652:7727   */\n      tag_99\n      jump\t// in\n    tag_169:\n        /* \"#utility.yul\":7752:7754   */\n      0x20\n        /* \"#utility.yul\":7747:7750   */\n      dup3\n        /* \"#utility.yul\":7743:7755   */\n      add\n        /* \"#utility.yul\":7736:7755   */\n      swap2\n      pop\n        /* \"#utility.yul\":7765:7840   */\n      tag_170\n        /* \"#utility.yul\":7836:7839   */\n      dup3\n        /* \"#utility.yul\":7827:7833   */\n      dup5\n        /* \"#utility.yul\":7765:7840   */\n      tag_99\n      jump\t// in\n    tag_170:\n        /* \"#utility.yul\":7865:7867   */\n      0x20\n        /* \"#utility.yul\":7860:7863   */\n      dup3\n        /* \"#utility.yul\":7856:7868   */\n      add\n        /* \"#utility.yul\":7849:7868   */\n      swap2\n      pop\n        /* \"#utility.yul\":7885:7888   */\n      dup2\n        /* \"#utility.yul\":7878:7888   */\n      swap1\n      pop\n        /* \"#utility.yul\":7356:7894   */\n      swap5\n      swap4\n      pop\n      pop\n      pop\n      pop\n      jump\t// out\n\n    auxdata: 0xa2646970667358221220beb6414de9664bcc89fd8399b63da2b15bda316a30196f82314f68ce7ec25fbf64736f6c63430008120033\n}\n",
				"bytecode": {
					"linkReferences": {},
					"object": "608060405234801561001057600080fd5b50336000806101000a81548173ffffffffffffffffffffffffffffffffffffffff021916908373ffffffffffffffffffffffffffffffffffffffff1602179055506109b0806100606000396000f3fe6080604052600436106100595760003560e01c806312065fe01461011157806335c1d3491461013c578063481c6a75146101795780635d495aea146101a4578063aacc5a17146101bb578063ed7a4e0b146101e65761010c565b3661010c57670429d069189e000034146100a8576040517f08c379a000000000000000000000000000000000000000000000000000000000815260040161009f906105ff565b60405180910390fd5b6001339080600181540180825580915050600190039060005260206000200160009091909190916101000a81548173ffffffffffffffffffffffffffffffffffffffff021916908373ffffffffffffffffffffffffffffffffffffffff1602179055005b600080fd5b34801561011d57600080fd5b50610126610211565b6040516101339190610638565b60405180910390f35b34801561014857600080fd5b50610163600480360381019061015e9190610684565b6102a8565b60405161017091906106f2565b60405180910390f35b34801561018557600080fd5b5061018e6102e7565b60405161019b919061072e565b60405180910390f35b3480156101b057600080fd5b506101b961030b565b005b3480156101c757600080fd5b506101d0610504565b6040516101dd9190610638565b60405180910390f35b3480156101f257600080fd5b506101fb61053e565b60405161020891906106f2565b60405180910390f35b60008060009054906101000a900473ffffffffffffffffffffffffffffffffffffffff1673ffffffffffffffffffffffffffffffffffffffff163373ffffffffffffffffffffffffffffffffffffffff16146102a2576040517f08c379a000000000000000000000000000000000000000000000000000000000815260040161029990610795565b60405180910390fd5b47905090565b600181815481106102b857600080fd5b906000526020600020016000915054906101000a900473ffffffffffffffffffffffffffffffffffffffff1681565b60008054906101000a900473ffffffffffffffffffffffffffffffffffffffff1681565b60008054906101000a900473ffffffffffffffffffffffffffffffffffffffff1673ffffffffffffffffffffffffffffffffffffffff163373ffffffffffffffffffffffffffffffffffffffff1614610399576040517f08c379a000000000000000000000000000000000000000000000000000000000815260040161039090610801565b60405180910390fd5b600260018054905010156103e2576040517f08c379a00000000000000000000000000000000000000000000000000000000081526004016103d99061086d565b60405180910390fd5b60006103ec610504565b905060006001805490508261040191906108bc565b905060018181548110610417576104166108ed565b5b9060005260206000200160009054906101000a900473ffffffffffffffffffffffffffffffffffffffff16600260006101000a81548173ffffffffffffffffffffffffffffffffffffffff021916908373ffffffffffffffffffffffffffffffffffffffff160217905550600260009054906101000a900473ffffffffffffffffffffffffffffffffffffffff1673ffffffffffffffffffffffffffffffffffffffff166108fc6104c6610211565b9081150290604051600060405180830381858888f193505050501580156104f1573d6000803e3d6000fd5b50600160006105009190610564565b5050565b600044426001805490506040516020016105209392919061093d565b6040516020818303038152906040528051906020012060001c905090565b600260009054906101000a900473ffffffffffffffffffffffffffffffffffffffff1681565b50805460008255906000526020600020908101906105829190610585565b50565b5b8082111561059e576000816000905550600101610586565b5090565b600082825260208201905092915050565b7f76616c7565206d75737420626520302e35206574686572000000000000000000600082015250565b60006105e96017836105a2565b91506105f4826105b3565b602082019050919050565b60006020820190508181036000830152610618816105dc565b9050919050565b6000819050919050565b6106328161061f565b82525050565b600060208201905061064d6000830184610629565b92915050565b600080fd5b6106618161061f565b811461066c57600080fd5b50565b60008135905061067e81610658565b92915050565b60006020828403121561069a57610699610653565b5b60006106a88482850161066f565b91505092915050565b600073ffffffffffffffffffffffffffffffffffffffff82169050919050565b60006106dc826106b1565b9050919050565b6106ec816106d1565b82525050565b600060208201905061070760008301846106e3565b92915050565b6000610718826106b1565b9050919050565b6107288161070d565b82525050565b6000602082019050610743600083018461071f565b92915050565b7f73656e646572206d7573742062652061206d616e616765720000000000000000600082015250565b600061077f6018836105a2565b915061078a82610749565b602082019050919050565b600060208201905081810360008301526107ae81610772565b9050919050565b7f6d757374206265206d616e616765720000000000000000000000000000000000600082015250565b60006107eb600f836105a2565b91506107f6826107b5565b602082019050919050565b6000602082019050818103600083015261081a816107de565b9050919050565b7f72657175697265206d6f72652074686520322075736572730000000000000000600082015250565b60006108576018836105a2565b915061086282610821565b602082019050919050565b600060208201905081810360008301526108868161084a565b9050919050565b7f4e487b7100000000000000000000000000000000000000000000000000000000600052601260045260246000fd5b60006108c78261061f565b91506108d28361061f565b9250826108e2576108e161088d565b5b828206905092915050565b7f4e487b7100000000000000000000000000000000000000000000000000000000600052603260045260246000fd5b6000819050919050565b6109376109328261061f565b61091c565b82525050565b60006109498286610926565b6020820191506109598285610926565b6020820191506109698284610926565b60208201915081905094935050505056fea2646970667358221220beb6414de9664bcc89fd8399b63da2b15bda316a30196f82314f68ce7ec25fbf64736f6c63430008120033",
					"opcodes": "PUSH1 0x80 PUSH1 0x40 MSTORE CALLVALUE DUP1 ISZERO PUSH2 0x10 JUMPI PUSH1 0x0 DUP1 REVERT JUMPDEST POP CALLER PUSH1 0x0 DUP1 PUSH2 0x100 EXP DUP2 SLOAD DUP2 PUSH20 0xFFFFFFFFFFFFFFFFFFFFFFFFFFFFFFFFFFFFFFFF MUL NOT AND SWAP1 DUP4 PUSH20 0xFFFFFFFFFFFFFFFFFFFFFFFFFFFFFFFFFFFFFFFF AND MUL OR SWAP1 SSTORE POP PUSH2 0x9B0 DUP1 PUSH2 0x60 PUSH1 0x0 CODECOPY PUSH1 0x0 RETURN INVALID PUSH1 0x80 PUSH1 0x40 MSTORE PUSH1 0x4 CALLDATASIZE LT PUSH2 0x59 JUMPI PUSH1 0x0 CALLDATALOAD PUSH1 0xE0 SHR DUP1 PUSH4 0x12065FE0 EQ PUSH2 0x111 JUMPI DUP1 PUSH4 0x35C1D349 EQ PUSH2 0x13C JUMPI DUP1 PUSH4 0x481C6A75 EQ PUSH2 0x179 JUMPI DUP1 PUSH4 0x5D495AEA EQ PUSH2 0x1A4 JUMPI DUP1 PUSH4 0xAACC5A17 EQ PUSH2 0x1BB JUMPI DUP1 PUSH4 0xED7A4E0B EQ PUSH2 0x1E6 JUMPI PUSH2 0x10C JUMP JUMPDEST CALLDATASIZE PUSH2 0x10C JUMPI PUSH8 0x429D069189E0000 CALLVALUE EQ PUSH2 0xA8 JUMPI PUSH1 0x40 MLOAD PUSH32 0x8C379A000000000000000000000000000000000000000000000000000000000 DUP2 MSTORE PUSH1 0x4 ADD PUSH2 0x9F SWAP1 PUSH2 0x5FF JUMP JUMPDEST PUSH1 0x40 MLOAD DUP1 SWAP2 SUB SWAP1 REVERT JUMPDEST PUSH1 0x1 CALLER SWAP1 DUP1 PUSH1 0x1 DUP2 SLOAD ADD DUP1 DUP3 SSTORE DUP1 SWAP2 POP POP PUSH1 0x1 SWAP1 SUB SWAP1 PUSH1 0x0 MSTORE PUSH1 0x20 PUSH1 0x0 KECCAK256 ADD PUSH1 0x0 SWAP1 SWAP2 SWAP1 SWAP2 SWAP1 SWAP2 PUSH2 0x100 EXP DUP2 SLOAD DUP2 PUSH20 0xFFFFFFFFFFFFFFFFFFFFFFFFFFFFFFFFFFFFFFFF MUL NOT AND SWAP1 DUP4 PUSH20 0xFFFFFFFFFFFFFFFFFFFFFFFFFFFFFFFFFFFFFFFF AND MUL OR SWAP1 SSTORE STOP JUMPDEST PUSH1 0x0 DUP1 REVERT JUMPDEST CALLVALUE DUP1 ISZERO PUSH2 0x11D JUMPI PUSH1 0x0 DUP1 REVERT JUMPDEST POP PUSH2 0x126 PUSH2 0x211 JUMP JUMPDEST PUSH1 0x40 MLOAD PUSH2 0x133 SWAP2 SWAP1 PUSH2 0x638 JUMP JUMPDEST PUSH1 0x40 MLOAD DUP1 SWAP2 SUB SWAP1 RETURN JUMPDEST CALLVALUE DUP1 ISZERO PUSH2 0x148 JUMPI PUSH1 0x0 DUP1 REVERT JUMPDEST POP PUSH2 0x163 PUSH1 0x4 DUP1 CALLDATASIZE SUB DUP2 ADD SWAP1 PUSH2 0x15E SWAP2 SWAP1 PUSH2 0x684 JUMP JUMPDEST PUSH2 0x2A8 JUMP JUMPDEST PUSH1 0x40 MLOAD PUSH2 0x170 SWAP2 SWAP1 PUSH2 0x6F2 JUMP JUMPDEST PUSH1 0x40 MLOAD DUP1 SWAP2 SUB SWAP1 RETURN JUMPDEST CALLVALUE DUP1 ISZERO PUSH2 0x185 JUMPI PUSH1 0x0 DUP1 REVERT JUMPDEST POP PUSH2 0x18E PUSH2 0x2E7 JUMP JUMPDEST PUSH1 0x40 MLOAD PUSH2 0x19B SWAP2 SWAP1 PUSH2 0x72E JUMP JUMPDEST PUSH1 0x40 MLOAD DUP1 SWAP2 SUB SWAP1 RETURN JUMPDEST CALLVALUE DUP1 ISZERO PUSH2 0x1B0 JUMPI PUSH1 0x0 DUP1 REVERT JUMPDEST POP PUSH2 0x1B9 PUSH2 0x30B JUMP JUMPDEST STOP JUMPDEST CALLVALUE DUP1 ISZERO PUSH2 0x1C7 JUMPI PUSH1 0x0 DUP1 REVERT JUMPDEST POP PUSH2 0x1D0 PUSH2 0x504 JUMP JUMPDEST PUSH1 0x40 MLOAD PUSH2 0x1DD SWAP2 SWAP1 PUSH2 0x638 JUMP JUMPDEST PUSH1 0x40 MLOAD DUP1 SWAP2 SUB SWAP1 RETURN JUMPDEST CALLVALUE DUP1 ISZERO PUSH2 0x1F2 JUMPI PUSH1 0x0 DUP1 REVERT JUMPDEST POP PUSH2 0x1FB PUSH2 0x53E JUMP JUMPDEST PUSH1 0x40 MLOAD PUSH2 0x208 SWAP2 SWAP1 PUSH2 0x6F2 JUMP JUMPDEST PUSH1 0x40 MLOAD DUP1 SWAP2 SUB SWAP1 RETURN JUMPDEST PUSH1 0x0 DUP1 PUSH1 0x0 SWAP1 SLOAD SWAP1 PUSH2 0x100 EXP SWAP1 DIV PUSH20 0xFFFFFFFFFFFFFFFFFFFFFFFFFFFFFFFFFFFFFFFF AND PUSH20 0xFFFFFFFFFFFFFFFFFFFFFFFFFFFFFFFFFFFFFFFF AND CALLER PUSH20 0xFFFFFFFFFFFFFFFFFFFFFFFFFFFFFFFFFFFFFFFF AND EQ PUSH2 0x2A2 JUMPI PUSH1 0x40 MLOAD PUSH32 0x8C379A000000000000000000000000000000000000000000000000000000000 DUP2 MSTORE PUSH1 0x4 ADD PUSH2 0x299 SWAP1 PUSH2 0x795 JUMP JUMPDEST PUSH1 0x40 MLOAD DUP1 SWAP2 SUB SWAP1 REVERT JUMPDEST SELFBALANCE SWAP1 POP SWAP1 JUMP JUMPDEST PUSH1 0x1 DUP2 DUP2 SLOAD DUP2 LT PUSH2 0x2B8 JUMPI PUSH1 0x0 DUP1 REVERT JUMPDEST SWAP1 PUSH1 0x0 MSTORE PUSH1 0x20 PUSH1 0x0 KECCAK256 ADD PUSH1 0x0 SWAP2 POP SLOAD SWAP1 PUSH2 0x100 EXP SWAP1 DIV PUSH20 0xFFFFFFFFFFFFFFFFFFFFFFFFFFFFFFFFFFFFFFFF AND DUP2 JUMP JUMPDEST PUSH1 0x0 DUP1 SLOAD SWAP1 PUSH2 0x100 EXP SWAP1 DIV PUSH20 0xFFFFFFFFFFFFFFFFFFFFFFFFFFFFFFFFFFFFFFFF AND DUP2 JUMP JUMPDEST PUSH1 0x0 DUP1 SLOAD SWAP1 PUSH2 0x100 EXP SWAP1 DIV PUSH20 0xFFFFFFFFFFFFFFFFFFFFFFFFFFFFFFFFFFFFFFFF AND PUSH20 0xFFFFFFFFFFFFFFFFFFFFFFFFFFFFFFFFFFFFFFFF AND CALLER PUSH20 0xFFFFFFFFFFFFFFFFFFFFFFFFFFFFFFFFFFFFFFFF AND EQ PUSH2 0x399 JUMPI PUSH1 0x40 MLOAD PUSH32 0x8C379A000000000000000000000000000000000000000000000000000000000 DUP2 MSTORE PUSH1 0x4 ADD PUSH2 0x390 SWAP1 PUSH2 0x801 JUMP JUMPDEST PUSH1 0x40 MLOAD DUP1 SWAP2 SUB SWAP1 REVERT JUMPDEST PUSH1 0x2 PUSH1 0x1 DUP1 SLOAD SWAP1 POP LT ISZERO PUSH2 0x3E2 JUMPI PUSH1 0x40 MLOAD PUSH32 0x8C379A000000000000000000000000000000000000000000000000000000000 DUP2 MSTORE PUSH1 0x4 ADD PUSH2 0x3D9 SWAP1 PUSH2 0x86D JUMP JUMPDEST PUSH1 0x40 MLOAD DUP1 SWAP2 SUB SWAP1 REVERT JUMPDEST PUSH1 0x0 PUSH2 0x3EC PUSH2 0x504 JUMP JUMPDEST SWAP1 POP PUSH1 0x0 PUSH1 0x1 DUP1 SLOAD SWAP1 POP DUP3 PUSH2 0x401 SWAP2 SWAP1 PUSH2 0x8BC JUMP JUMPDEST SWAP1 POP PUSH1 0x1 DUP2 DUP2 SLOAD DUP2 LT PUSH2 0x417 JUMPI PUSH2 0x416 PUSH2 0x8ED JUMP JUMPDEST JUMPDEST SWAP1 PUSH1 0x0 MSTORE PUSH1 0x20 PUSH1 0x0 KECCAK256 ADD PUSH1 0x0 SWAP1 SLOAD SWAP1 PUSH2 0x100 EXP SWAP1 DIV PUSH20 0xFFFFFFFFFFFFFFFFFFFFFFFFFFFFFFFFFFFFFFFF AND PUSH1 0x2 PUSH1 0x0 PUSH2 0x100 EXP DUP2 SLOAD DUP2 PUSH20 0xFFFFFFFFFFFFFFFFFFFFFFFFFFFFFFFFFFFFFFFF MUL NOT AND SWAP1 DUP4 PUSH20 0xFFFFFFFFFFFFFFFFFFFFFFFFFFFFFFFFFFFFFFFF AND MUL OR SWAP1 SSTORE POP PUSH1 0x2 PUSH1 0x0 SWAP1 SLOAD SWAP1 PUSH2 0x100 EXP SWAP1 DIV PUSH20 0xFFFFFFFFFFFFFFFFFFFFFFFFFFFFFFFFFFFFFFFF AND PUSH20 0xFFFFFFFFFFFFFFFFFFFFFFFFFFFFFFFFFFFFFFFF AND PUSH2 0x8FC PUSH2 0x4C6 PUSH2 0x211 JUMP JUMPDEST SWAP1 DUP2 ISZERO MUL SWAP1 PUSH1 0x40 MLOAD PUSH1 0x0 PUSH1 0x40 MLOAD DUP1 DUP4 SUB DUP2 DUP6 DUP9 DUP9 CALL SWAP4 POP POP POP POP ISZERO DUP1 ISZERO PUSH2 0x4F1 JUMPI RETURNDATASIZE PUSH1 0x0 DUP1 RETURNDATACOPY RETURNDATASIZE PUSH1 0x0 REVERT JUMPDEST POP PUSH1 0x1 PUSH1 0x0 PUSH2 0x500 SWAP2 SWAP1 PUSH2 0x564 JUMP JUMPDEST POP POP JUMP JUMPDEST PUSH1 0x0 PREVRANDAO TIMESTAMP PUSH1 0x1 DUP1 SLOAD SWAP1 POP PUSH1 0x40 MLOAD PUSH1 0x20 ADD PUSH2 0x520 SWAP4 SWAP3 SWAP2 SWAP1 PUSH2 0x93D JUMP JUMPDEST PUSH1 0x40 MLOAD PUSH1 0x20 DUP2 DUP4 SUB SUB DUP2 MSTORE SWAP1 PUSH1 0x40 MSTORE DUP1 MLOAD SWAP1 PUSH1 0x20 ADD KECCAK256 PUSH1 0x0 SHR SWAP1 POP SWAP1 JUMP JUMPDEST PUSH1 0x2 PUSH1 0x0 SWAP1 SLOAD SWAP1 PUSH2 0x100 EXP SWAP1 DIV PUSH20 0xFFFFFFFFFFFFFFFFFFFFFFFFFFFFFFFFFFFFFFFF AND DUP2 JUMP JUMPDEST POP DUP1 SLOAD PUSH1 0x0 DUP3 SSTORE SWAP1 PUSH1 0x0 MSTORE PUSH1 0x20 PUSH1 0x0 KECCAK256 SWAP1 DUP2 ADD SWAP1 PUSH2 0x582 SWAP2 SWAP1 PUSH2 0x585 JUMP JUMPDEST POP JUMP JUMPDEST JUMPDEST DUP1 DUP3 GT ISZERO PUSH2 0x59E JUMPI PUSH1 0x0 DUP2 PUSH1 0x0 SWAP1 SSTORE POP PUSH1 0x1 ADD PUSH2 0x586 JUMP JUMPDEST POP SWAP1 JUMP JUMPDEST PUSH1 0x0 DUP3 DUP3 MSTORE PUSH1 0x20 DUP3 ADD SWAP1 POP SWAP3 SWAP2 POP POP JUMP JUMPDEST PUSH32 0x76616C7565206D75737420626520302E35206574686572000000000000000000 PUSH1 0x0 DUP3 ADD MSTORE POP JUMP JUMPDEST PUSH1 0x0 PUSH2 0x5E9 PUSH1 0x17 DUP4 PUSH2 0x5A2 JUMP JUMPDEST SWAP2 POP PUSH2 0x5F4 DUP3 PUSH2 0x5B3 JUMP JUMPDEST PUSH1 0x20 DUP3 ADD SWAP1 POP SWAP2 SWAP1 POP JUMP JUMPDEST PUSH1 0x0 PUSH1 0x20 DUP3 ADD SWAP1 POP DUP2 DUP2 SUB PUSH1 0x0 DUP4 ADD MSTORE PUSH2 0x618 DUP2 PUSH2 0x5DC JUMP JUMPDEST SWAP1 POP SWAP2 SWAP1 POP JUMP JUMPDEST PUSH1 0x0 DUP2 SWAP1 POP SWAP2 SWAP1 POP JUMP JUMPDEST PUSH2 0x632 DUP2 PUSH2 0x61F JUMP JUMPDEST DUP3 MSTORE POP POP JUMP JUMPDEST PUSH1 0x0 PUSH1 0x20 DUP3 ADD SWAP1 POP PUSH2 0x64D PUSH1 0x0 DUP4 ADD DUP5 PUSH2 0x629 JUMP JUMPDEST SWAP3 SWAP2 POP POP JUMP JUMPDEST PUSH1 0x0 DUP1 REVERT JUMPDEST PUSH2 0x661 DUP2 PUSH2 0x61F JUMP JUMPDEST DUP2 EQ PUSH2 0x66C JUMPI PUSH1 0x0 DUP1 REVERT JUMPDEST POP JUMP JUMPDEST PUSH1 0x0 DUP2 CALLDATALOAD SWAP1 POP PUSH2 0x67E DUP2 PUSH2 0x658 JUMP JUMPDEST SWAP3 SWAP2 POP POP JUMP JUMPDEST PUSH1 0x0 PUSH1 0x20 DUP3 DUP5 SUB SLT ISZERO PUSH2 0x69A JUMPI PUSH2 0x699 PUSH2 0x653 JUMP JUMPDEST JUMPDEST PUSH1 0x0 PUSH2 0x6A8 DUP5 DUP3 DUP6 ADD PUSH2 0x66F JUMP JUMPDEST SWAP2 POP POP SWAP3 SWAP2 POP POP JUMP JUMPDEST PUSH1 0x0 PUSH20 0xFFFFFFFFFFFFFFFFFFFFFFFFFFFFFFFFFFFFFFFF DUP3 AND SWAP1 POP SWAP2 SWAP1 POP JUMP JUMPDEST PUSH1 0x0 PUSH2 0x6DC DUP3 PUSH2 0x6B1 JUMP JUMPDEST SWAP1 POP SWAP2 SWAP1 POP JUMP JUMPDEST PUSH2 0x6EC DUP2 PUSH2 0x6D1 JUMP JUMPDEST DUP3 MSTORE POP POP JUMP JUMPDEST PUSH1 0x0 PUSH1 0x20 DUP3 ADD SWAP1 POP PUSH2 0x707 PUSH1 0x0 DUP4 ADD DUP5 PUSH2 0x6E3 JUMP JUMPDEST SWAP3 SWAP2 POP POP JUMP JUMPDEST PUSH1 0x0 PUSH2 0x718 DUP3 PUSH2 0x6B1 JUMP JUMPDEST SWAP1 POP SWAP2 SWAP1 POP JUMP JUMPDEST PUSH2 0x728 DUP2 PUSH2 0x70D JUMP JUMPDEST DUP3 MSTORE POP POP JUMP JUMPDEST PUSH1 0x0 PUSH1 0x20 DUP3 ADD SWAP1 POP PUSH2 0x743 PUSH1 0x0 DUP4 ADD DUP5 PUSH2 0x71F JUMP JUMPDEST SWAP3 SWAP2 POP POP JUMP JUMPDEST PUSH32 0x73656E646572206D7573742062652061206D616E616765720000000000000000 PUSH1 0x0 DUP3 ADD MSTORE POP JUMP JUMPDEST PUSH1 0x0 PUSH2 0x77F PUSH1 0x18 DUP4 PUSH2 0x5A2 JUMP JUMPDEST SWAP2 POP PUSH2 0x78A DUP3 PUSH2 0x749 JUMP JUMPDEST PUSH1 0x20 DUP3 ADD SWAP1 POP SWAP2 SWAP1 POP JUMP JUMPDEST PUSH1 0x0 PUSH1 0x20 DUP3 ADD SWAP1 POP DUP2 DUP2 SUB PUSH1 0x0 DUP4 ADD MSTORE PUSH2 0x7AE DUP2 PUSH2 0x772 JUMP JUMPDEST SWAP1 POP SWAP2 SWAP1 POP JUMP JUMPDEST PUSH32 0x6D757374206265206D616E616765720000000000000000000000000000000000 PUSH1 0x0 DUP3 ADD MSTORE POP JUMP JUMPDEST PUSH1 0x0 PUSH2 0x7EB PUSH1 0xF DUP4 PUSH2 0x5A2 JUMP JUMPDEST SWAP2 POP PUSH2 0x7F6 DUP3 PUSH2 0x7B5 JUMP JUMPDEST PUSH1 0x20 DUP3 ADD SWAP1 POP SWAP2 SWAP1 POP JUMP JUMPDEST PUSH1 0x0 PUSH1 0x20 DUP3 ADD SWAP1 POP DUP2 DUP2 SUB PUSH1 0x0 DUP4 ADD MSTORE PUSH2 0x81A DUP2 PUSH2 0x7DE JUMP JUMPDEST SWAP1 POP SWAP2 SWAP1 POP JUMP JUMPDEST PUSH32 0x72657175697265206D6F72652074686520322075736572730000000000000000 PUSH1 0x0 DUP3 ADD MSTORE POP JUMP JUMPDEST PUSH1 0x0 PUSH2 0x857 PUSH1 0x18 DUP4 PUSH2 0x5A2 JUMP JUMPDEST SWAP2 POP PUSH2 0x862 DUP3 PUSH2 0x821 JUMP JUMPDEST PUSH1 0x20 DUP3 ADD SWAP1 POP SWAP2 SWAP1 POP JUMP JUMPDEST PUSH1 0x0 PUSH1 0x20 DUP3 ADD SWAP1 POP DUP2 DUP2 SUB PUSH1 0x0 DUP4 ADD MSTORE PUSH2 0x886 DUP2 PUSH2 0x84A JUMP JUMPDEST SWAP1 POP SWAP2 SWAP1 POP JUMP JUMPDEST PUSH32 0x4E487B7100000000000000000000000000000000000000000000000000000000 PUSH1 0x0 MSTORE PUSH1 0x12 PUSH1 0x4 MSTORE PUSH1 0x24 PUSH1 0x0 REVERT JUMPDEST PUSH1 0x0 PUSH2 0x8C7 DUP3 PUSH2 0x61F JUMP JUMPDEST SWAP2 POP PUSH2 0x8D2 DUP4 PUSH2 0x61F JUMP JUMPDEST SWAP3 POP DUP3 PUSH2 0x8E2 JUMPI PUSH2 0x8E1 PUSH2 0x88D JUMP JUMPDEST JUMPDEST DUP3 DUP3 MOD SWAP1 POP SWAP3 SWAP2 POP POP JUMP JUMPDEST PUSH32 0x4E487B7100000000000000000000000000000000000000000000000000000000 PUSH1 0x0 MSTORE PUSH1 0x32 PUSH1 0x4 MSTORE PUSH1 0x24 PUSH1 0x0 REVERT JUMPDEST PUSH1 0x0 DUP2 SWAP1 POP SWAP2 SWAP1 POP JUMP JUMPDEST PUSH2 0x937 PUSH2 0x932 DUP3 PUSH2 0x61F JUMP JUMPDEST PUSH2 0x91C JUMP JUMPDEST DUP3 MSTORE POP POP JUMP JUMPDEST PUSH1 0x0 PUSH2 0x949 DUP3 DUP7 PUSH2 0x926 JUMP JUMPDEST PUSH1 0x20 DUP3 ADD SWAP2 POP PUSH2 0x959 DUP3 DUP6 PUSH2 0x926 JUMP JUMPDEST PUSH1 0x20 DUP3 ADD SWAP2 POP PUSH2 0x969 DUP3 DUP5 PUSH2 0x926 JUMP JUMPDEST PUSH1 0x20 DUP3 ADD SWAP2 POP DUP2 SWAP1 POP SWAP5 SWAP4 POP POP POP POP JUMP INVALID LOG2 PUSH5 0x6970667358 0x22 SLT KECCAK256 0xBE 0xB6 COINBASE 0x4D 0xE9 PUSH7 0x4BCC89FD8399B6 RETURNDATASIZE LOG2 0xB1 JUMPDEST 0xDA BALANCE PUSH11 0x30196F82314F68CE7EC25F 0xBF PUSH5 0x736F6C6343 STOP ADDMOD SLT STOP CALLER "
				},
				"gasEstimates": {
					"creation": {
						"codeDepositCost": "496000",
						"executionCost": "24796",
						"totalCost": "520796"
					},
					"external": {
						"getBalance()": "2584",
						"getRandom()": "infinite",
						"manager()": "2533",
						"participants(uint256)": "4956",
						"pickWinner()": "infinite",
						"winnerAddress()": "2602"
					}
				},
				"methodIdentifiers": {
					"getBalance()": "12065fe0",
					"getRandom()": "aacc5a17",
					"manager()": "481c6a75",
					"participants(uint256)": "35c1d349",
					"pickWinner()": "5d495aea",
					"winnerAddress()": "ed7a4e0b"
				}
			},
			"storageLayout": {
				"storage": [
					{
						"astId": 3,
						"contract": "lotterySmartContract.sol:Lottey",
						"label": "manager",
						"offset": 0,
						"slot": "0",
						"type": "t_address"
					},
					{
						"astId": 6,
						"contract": "lotterySmartContract.sol:Lottey",
						"label": "participants",
						"offset": 0,
						"slot": "1",
						"type": "t_array(t_address_payable)dyn_storage"
					},
					{
						"astId": 8,
						"contract": "lotterySmartContract.sol:Lottey",
						"label": "winnerAddress",
						"offset": 0,
						"slot": "2",
						"type": "t_address_payable"
					}
				],
				"types": {
					"t_address": {
						"encoding": "inplace",
						"label": "address",
						"numberOfBytes": "20"
					},
					"t_address_payable": {
						"encoding": "inplace",
						"label": "address payable",
						"numberOfBytes": "20"
					},
					"t_array(t_address_payable)dyn_storage": {
						"base": "t_address_payable",
						"encoding": "dynamic_array",
						"label": "address payable[]",
						"numberOfBytes": "32"
					}
				}
			},
			"userdoc": {
				"kind": "user",
				"methods": {},
				"version": 1
			}
		}
	}
}